:100000000C9472000C9491000C9491000C9491004B
:100010000C9491000C9491000C9491000C9491001C
:100020000C9491000C9491000C9491000C9491000C
:100030000C9491000C9491000C9491000C949100FC
:100040000C9491000C9491000C9491000C949100EC
:100050000C9491000C9491000C9491000C949100DC
:100060000C9491000C94A1010C946F010C949100DC
:100070000C9491000C9491000C9491000C949100BC
:100080000C9491000C9491000C9491000C949100AC
:100090000C9491000C9491000C9491000C9491009C
:1000A0000C9491000C9491000C9491000C9491008C
:1000B0000C9491000C9491000C9491000C9491007C
:1000C0000C9491000C9491000C9491000C9491006C
:1000D0000C9491000C9491000C9491000C9491005C
:1000E0000C94910011241FBECFEFD1E2DEBFCDBF33
:1000F00012E0A0E0B2E0E6E8F6E000E00BBF02C0EC
:1001000007900D92A030B107D9F712E0A0E0B2E05D
:1001100001C01D92A639B107E1F70E9493000C942B
:1001200041030C940000EF92FF920F931F93CF9323
:10013000DF930E9432030E94170178940E945D01B0
:10014000982F80938602845E8C30C0F7983E28F406
:10015000963E90F5943E90F307C09C3E78F39E3E09
:1001600018F0903F58F728C00E945D0180938702E5
:100170000E945D018093840210928502182F00E096
:100180004091870250E0402B512B509389024093BD
:10019000880220918D0230918E0280E061E00E9401
:1001A000D10180938A0290938B020E944901809131
:1001B0008B020E944901C2CF0E945D018093870299
:1001C0000E945D018093840210928502F82EEE2435
:1001D0008091870290E08E299F29909389028093D5
:1001E00088020E945D01809387020E945D018093D6
:1001F000840210928502D82FC0E080918702282FB8
:1002000030E02C2B3D2B30938E0220938D02809179
:100210008602409188025091890280FD03C081E0EE
:1002200060E002C081E061E00E94D10187CF1092BE
:10023000C50080E18093C400E0ECF0E08081826042
:100240008083E1ECF0E08081886080838081806140
:100250008083808180688083E2ECF0E0808186602A
:1002600080830895282F909140029F5F9F73809113
:1002700041029817E1F3E0914002F0E0E050FE4FB8
:100280002083909340028091C10080628093C100DE
:1002900008950E943201089580918302E2E4F2E021
:1002A000E80FF11D80812091830230E02F5F3F4FE6
:1002B0002F73307020938302089590918202809171
:1002C00083029817D1F30E944C0108959091820205
:1002D0008091830220E0981321E0822F08951F92DD
:1002E0000F920FB60F920BB60F9211248F939F931C
:1002F000EF93FF939091400280914102981731F45F
:100300008091C1008F7D8093C10010C0E0914102B7
:10031000F0E0E050FE4F80818093C6008091410262
:1003200090E001968F73907080934102FF91EF915E
:100330009F918F910F900BBE0F900FBE0F901F904B
:1003400018951F920F920FB60F920BB60F921124B1
:100350002F933F938F939F93EF93FF939091C600BA
:1003600080918202282F30E02F5F3F4F2F73307033
:1003700080918302821741F0E0918202F0E0EE5B0F
:10038000FD4F908320938202FF91EF919F918F9177
:100390003F912F910F900BBE0F900FBE0F901F90AB
:1003A0001895782FF9018091950284FF03C08FB1D1
:1003B000809391028091950281FF04C08091060193
:1003C000809392028091950280FF04C089B18F7062
:1003D000809393028091950283FF0FC08091030167
:1003E0002091000190E083709070880F991F880F12
:1003F000991F2370282B209394024234510509F44D
:100400005DC04334510540F44034510551F041344E
:10041000510509F0E3C022C04334510509F0DEC0A4
:100420007CC090919502892F807609F0D7C0772300
:1004300039F49091920280E020919102422F4FC0B6
:1004400094FD02C0E0939102613009F0C7C0809131
:10045000950281FDC3C010929202C0C080919502A6
:1004600082FDBCC07723A9F48091940290E064E0FF
:10047000880F991F6A95E1F72091930230E02F7061
:100480003070822B932B582F44278091920290E05A
:1004900027C081FD02C0E0939202613009F09EC046
:1004A0008091950280FDD9C08F2F8F708093930229
:1004B000D4C08F2F8F708093940290C020919502AA
:1004C00022FD8CC0772379F4922F80E03091940242
:1004D0003295307F209193022F70322B432F50E0C2
:1004E000482B592B7DC020FD04C08E2F8F70809328
:1004F00093028091950283FD0AC0CF01807F9070A6
:1005000044E0969587954A95E1F78093940261308F
:1005100009F064C0F093950261C0713009F059C0D0
:10052000E09395022E2F8E2F807601F5E4FF04C014
:1005300010BA8FEF81BB02C08FEF80BB23FF0BC0CF
:10054000809104018C7F80930401809101018C7F54
:100550008093010112C080910401836080930401A3
:100560008091010183608093010111C010BA109243
:100570000401109201018FEF81BB8091050183601E
:10058000809305018091020183608093020122FD26
:1005900017C021FF06C0109207018FEF809308015A
:1005A00003C08FEF8093070120FF06C08AB1807FD0
:1005B0008AB98BB18F600BC08AB18F608AB90EC0C7
:1005C000109207018FEF809308011AB88FE08BB962
:1005D00005C080919502482F50E002C040E050E0F5
:1005E00020919502822F8076B1F524FD03C0809181
:1005F000910281BB21FD04C0809192028093080189
:1006000020FD08C08BB190919302892B8BB98BB1DF
:1006100089238BB923FD1FC0209102018091940290
:10062000382F3370232B20930201209102013223B3
:10063000309302012091050190E08C7090709595A7
:10064000879595958795282B209305012091050185
:10065000822380930501CA0108958091950283FF4A
:1006600028CFBCCF80E490E09093900280938F02DB
:1006700081E060E043E450E02BE930E00E94D101EA
:060680000895F894FFCF7D
:00000001FF
