:100000000C9434000C943E000C943E000C943E0082
:100010000C943E000C943E000C943E000C943E0068
:100020000C943E000C943E000C943E000C943E0058
:100030000C943E000C943E000C943E000C943E0048
:100040000C943E000C943E000C943E000C943E0038
:100050000C943E000C943E000C943E000C943E0028
:100060000C943E000C943E0011241FBECFEFD8E04C
:10007000DEBFCDBF0E9440000C9473000C940000C2
:10008000CF93DF93229A2A982A98C0E0D0E08AE0A2
:100090000E9459002196C436D105C9F72A9AC0E0BA
:1000A000D0E084E60E9459002196CA30D105C9F7F4
:1000B000EBCF8F93813031F00FD08A950C945A009A
:1000C0008F910895A4E40000BAE30000BA95E9F71F
:1000D000AA95D1F70C946000A9E4B8E4BA95F1F7B9
:0A00E000AA95D9F70895F894FFCF10
:00000001FF
